:10000000900C0020353900002D3900002D390000FA
:1000100000000000000000000000000000000000E0
:100020000000000000000000000000002D3900006A
:1000300000000000000000002D3900002D390000F4
:100040002D3900002D3900002D3900002D39000018
:10005000E12400002D39000001230000812B000065
:10006000912B0000A12B0000B12B0000000000002C
:100070000000000019360000293600003936000063
:1000800049360000593600006936000000000000C3
:100090000000000021430000691E00002D3900000F
:1000A0002D39000010B5064C2378002B07D1054BE5
:1000B000002B02D0044800E000BF0123237010BDD4
:1000C0002400002000000000E049000008B5084BB3
:1000D000002B03D00748084900E000BF0748036829
:1000E000002B00D108BD064B002BFBD09847F9E749
:1000F00000000000E049000028000020E049000066
:100100000000000010B5002A05D00023CC5CC454C8
:1001100001339342FAD110BD021CCB7E1B02887EB4
:1001200018431378032B05D14B7D1B020A7D134323
:100130001B0418437047C04630B5016800291AD027
:100140000C78202C09D93A2C1ED00B1C01331A78BC
:10015000202A04D93A2AF9D104E0221C0B1C0025DC
:100160003A2A13D14A1C934208D1302C09D10231CA
:10017000016000250AE001256D4207E001256D427E
:1001800004E001256D4201E00B1CEBE7281C30BDAB
:10019000F0B583B002790023002A29D0041CC56A77
:1001A00030339C46844463460193407861462A1C60
:1001B0000123114EB0470123002819D100232371D8
:1001C000236AEA1A0023A1698A4211D2E678012E35
:1001D0000DD9094FA3699C466544607801992A1C92
:1001E0000123B847013E012EF4D1002300E0002393
:1001F000181C03B0F0BDC0462D1C0000F8B500244B
:10020000C36A8B4213D00E1C051C0A4B9847041E70
:100210000AD16878291C3031321C0123064FB847B7
:10022000002803D1EE6202E0012400E00124201C3A
:10023000F8BDC04691010000AD1B000010B5041CC4
:1002400000230371013BC3621E4B98470323002820
:1002500035D11D4BE25C12021C4BE35C1A4312B217
:1002600002231B498A422AD16733E35C1A066823BA
:10027000E35C1B0413436622A25C13436722A25C67
:10028000120213431B021B0A124A934216D0852303
:10029000E35C1A068423E35C1B0413438222A25C02
:1002A00013438322A25C120213431B021B0A0A4A55
:1002B00094466344581E8341DBB200E00023181CBF
:1002C00010BDC046FD0100002F0200002E020000FC
:1002D00055AAFFFF46415400BABEABFF10B5002837
:1002E00012D00268002A11D01178092300290ED0FB
:1002F000D48881888C420AD15078064B98470323D2
:10030000C007C017034002E0092300E00923181CBE
:1003100010BDC0465D1A0000F0B557464E46454632
:10032000E0B484B0071C161C00230360081CD24BE9
:100330009847041C0B23002800DAE0E18300CF4A31
:100340009D58002D00D16AE13D602B78002B0DD027
:100350006878CB4B9847C30708D40023002E00D100
:10036000CDE1430700D45CE10A23C8E100232B70F0
:10037000E0B26870C34B98470323C20700D5BEE1C3
:10038000002E00D151E10733420700D5B7E14CE11F
:100390001978221C002909D0DA7911069A791204F9
:1003A0000A4319790A43597909020A4369464250B6
:1003B000103304301028EBD1002602246B46F75886
:1003C000201C002F05D0281C391CAF4B9847002853
:1003D00002D00436102EF1D1032800D123E10D23E1
:1003E000002800D08BE12F33EA5C1202013BEB5C6A
:1003F0001A4312B20D23802189008A4200D07EE187
:100400003A33EC5C23024622AC5C1C430DD15723EB
:10041000EB5C1C065623EB5C1B0423430E32AC5CE6
:100420001C435523EA5C12021443AC614023EA5C8E
:10043000EA70511E333B012900D960E13033E95C99
:10044000A970303B002900D159E1481E014200D07B
:1004500055E13533EB5C1B024120285C1843814693
:1004600028810D23000700D049E13733E85C0302FF
:100470004320285C18430DD15323EB5C180652230C
:10048000EB5C1B0403435020285C18435123EE5CB3
:10049000360230433F23EE5C33023E26AE5D1E4300
:1004A0000D23002E00D12AE1624392464B461B09E0
:1004B0009B19534498460D23404500D21FE1434603
:1004C000C01A724B98470D23002800D117E1002273
:1004D0006F4B8342524102239A1A6E4B984200D9C5
:1004E000B1E002306861EF61BE192E624346DB194C
:1004F000AB62032A1ED10D234A46002A00D0FEE03B
:100500005233EB5C1A065E23EB5C1B0413435C2244
:10051000AA5C1A435D23EB5C1B0213436B628200EF
:100520005D4B9C466244520AF33BFF3B944200D22F
:10053000E5E0D3E00D234946002900D1DFE0564431
:100540006E62022A01D140008DE003214143490837
:1005500001231840081886E0791C281C4F4B984747
:100560000322002852D100236B714D4BEB5C1B0220
:100570004C4AAA5C13431BB203224B498B4245D120
:100580003323EB5C1A063223EB5C1B04134330224B
:10059000AA5C1A433123EB5C1B0213430322434939
:1005A0008B4233D1424BEB5C1A06424BEB5C1B0493
:1005B000134385229200AA5C1A433F4BEB5C1B025B
:1005C000134303223D498B4220D13D4BEB5C1A067D
:1005D0003C4BEB5C1B04134386229200AA5C1A433B
:1005E000394BEB5C1B0213432B61384BEB5C1A0657
:1005F000374BEB5C1B04134387229200AA5C1A431F
:10060000344BEB5C1B021343EB6003222A70324A2B
:10061000138801339BB21380EB8000236FE00C231F
:100620006DE000236BE0012369E0281C0021164BDC
:1006300098470027012800D0CEE62B1CF333FF3368
:1006400000200024A4E602306861EF61BE192E622A
:100650004346DB19AB624EE701235B422B61EB6043
:1006600081336B71D2E70C4B9C466044400AF33BEC
:10067000FF3B844243D3EFE73901000044000020F0
:100680005D1A0000711A00003D020000C143000025
:10069000F50F0000F5FF0000FF010000FD01000064
:1006A0002F0200002E02000055AAFFFF52526141A6
:1006B000170200001602000015020000727241616C
:1006C0001B0200001A020000190200001F020000B5
:1006D0001E0200001D0200004000002001235B42BA
:1006E0002B61EB6081336B711F3BEB5C1B02602263
:1006F000AA5C1343012B00D12EE7032286E7181CC6
:1007000004B01CBC90469946A246F0BD38B5041C06
:100710002D4B9847002855D12378032B4AD1637974
:10072000012B47D1211C30310B1C8C229200A018C8
:1007300000221A7001338342FBD15522234BE2542D
:100740005532234BE254DE3BFF3B7A3AA35401324D
:10075000A3540F330132A3540F32332022543F30BD
:100760008525AD0060551B4D60551B4822541B4A22
:10077000A35423690132A354180A194AA054180C2F
:10078000184AA0541B0E184AA354E3680132A3541C
:10079000180A164AA054180C154AA0541B0E154AE4
:1007A000A354E3695A1CE26260780123124DA84702
:1007B00000236371607800210022104B9847431E8C
:1007C0009841C0B238BDC046910100002E02000021
:1007D0002F020000150200001602000017020000A0
:1007E000190200001A0200001B0200001D02000096
:1007F0001E0200001F0200002D1C0000D11C000082
:10080000021C02394369023B0020994203D29078CE
:100810004143936AC8187047F8B5012966D9012386
:100820004269914271D20C1C061C0378022B2AD01B
:10083000032B3DD0012B5BD14F087F18790A036A47
:100840009C466144324B9847002853D1FB05DB0D91
:10085000F31830331D780137790A336A9C466144B6
:10086000301C2B4B9847002847D1FF05FF0DF0198E
:10087000303003781B021D43E30701D52B0944E008
:100880002B051B0D41E0090A036A9C466144204B7D
:100890009847002834D16100FF235B00194073188A
:1008A000303318783031761873781B0203432CE00C
:1008B000C909036A9C466144154B9847002822D118
:1008C000A100FE2464002140081C303030188378D9
:1008D0001C04C27813062343427812021343711892
:1008E00030310A7813431B011B090EE001230CE091
:1008F00001230AE001235B4207E001235B4204E09D
:1009000001235B4201E001235B42181CF8BDC04695
:10091000FD010000F0B5474680B4051C0E1CE980BF
:1009200084680220012C45D02B685A69944241D238
:10093000002C0CD11A78032A02D15A6A002A05D158
:100940001A890220964235D25B6A1DE0141C9F78FA
:100950003F01BE4213D3F61B184B984600E01E1C05
:100960002868211CC047041C431C1ED001281ED926
:100970002B685B6998421CD2F31BB742EFD92868F9
:10098000211C0F4B9847031CEC600220002B11D058
:100990003009C3182B610F2333405B0130332A68C1
:1009A000944663446B61002004E0012002E00220D1
:1009B00000E0022004BC9046F0BDC04619080000CB
:1009C0000108000010B5041CC1880C4B9847002892
:1009D00013D1206821690A4B984700280DD163691B
:1009E000191C203100221A7001338B42FBD1E52300
:1009F00062691370236801221A7110BD1509000085
:100A0000FD010000F0B5474680B4071C0D1C161C04
:100A10000224012900D890E04369994200D38CE078
:100A20000378022B42D0032B54D00224012B71D126
:100A30004B08984688444346590A036A9C466144D9
:100A4000404B9847041E65D14346DB05DB0DEA07A2
:100A500017D5FB1830331A780F210A40F031314096
:100A600009010A431A704546013501233B71690AA1
:100A70003B6A9C466144381C324B9847002846D15B
:100A80004BE0FB1830331E704546013501233B71A6
:100A9000690A3B6A9C466144381C2A4B98470028E7
:100AA00037D13FE0FB1830331E7033E0090A036A88
:100AB0009C466144234B9847041E2BD16D00FF23B5
:100AC0005B001D407B1930331E7030357D19360AAE
:100AD0006E701FE0C909036A9C466144194B984730
:100AE000041E17D1AD00FE235B001D402A1C3032CE
:100AF000BA18D3787D1930351B091B071E432E7099
:100B0000330A5370330C9370360ED67002E0041C17
:100B100000E0041C01233B710FE0EB05DB0D3609FF
:100B2000F6B2BFE7EB05DB0DFA18303211780F2271
:100B30009143360A16400E43B4E7201C04BC90468D
:100B4000F0BDC046FD010000F0B54F4680B4051C65
:100B50008946002907D1C768002F10D043699F42FA
:100B60000ED301270CE02D4B9847031E012B42D9D1
:100B7000421C42D06A694F46934201D24AE00127A3
:100B80003C1C264E01346B699C4202D3012F37D99D
:100B90000224281C211CB047002806D0431C31D059
:100BA000012832D0BC42EDD131E0261C281C211C8A
:100BB0001B4A1C4B9847002815D14B46002B06D0EA
:100BC000281C4946221C174B984700280BD1EE6081
:100BD0002B695A1C1DD0013B2B616A7901231343F9
:100BE0006B71201C16E00138434243415C420123F3
:100BF000201C18430EE001200CE00120404209E0D7
:100C0000002007E00120404204E0012002E0002033
:100C100000E0201C04BC9146F0BDC046190800004D
:100C2000FFFFFF0F050A0000F0B54F464646C0B46F
:100C300083B0C488013422040423002A7DD00269D1
:100C4000002A7AD00191051C0B3323401E1E68D167
:100C500001320261C168002905D103681A890423A1
:100C600094426AD25DE0006823098278013A1A4210
:100C700057D1354B9847071C022301285DD9431CE7
:100C800058D0286843699F4245D30423019A002A1B
:100C900053D0E9682D4B9847071C072300284CD0F8
:100CA000053B012849D0013B421C46D02868284B0F
:100CB00098470123002840D12B681A1C30328C2120
:100CC00089008C4663440021117001329A42FBD1A5
:100CD0002B689846181C391C1E4B98474346D8620F
:100CE00000239846013399460DE04A461A71286858
:100CF000174B984700281FD12A68D36A0133D36263
:100D000001239C46E0442B689A789045EDD3DA6A3B
:100D10004146521ADA62EF602868391C0D4B984739
:100D20002861EC80730130332A68944663446B6118
:100D3000002302E0012300E00123181C03B00CBCD7
:100D400090469946F0BDC04619080000490B0000C6
:100D50009101000001080000F8B55F4656464D4677
:100D60004446F0B4041C0E1C0B782F2B01D05C2BD6
:100D700000D101360023A36033781F2B08D8201C34
:100D800000217C4B9847071C00236361EAE0013691
:100D900033782F2BFBD05C2BF9D0A3699946191C13
:100DA0000B3120221A7001338B42FBD1351C0023FA
:100DB0009C4608339A46002398460127BF1B02230E
:100DC0009B46231C64469C4600E001357B1929782C
:100DD000202900D8B8E02F2900D1AFE05C2900D14C
:100DE000ACE02E2900D198E0544500D38DE007E017
:100DF00043469B00DBB2984608240B239A46E4E75F
:100E00004BB2002B00DB8DE0434603221343DBB2E1
:100E100098468039584B595C84E0584B01331A7816
:100E2000002A00D184E09042F8D106279AE0434698
:100E30005A461343DBB298460AE00B1C613B192B60
:100E400006D8434601221343DBB298462039C9B283
:100E50004B4619550134B8E76246002A57D04A4636
:100E60001278E52A02D1E03A49460A705246082A29
:100E700003D142469200D2B29046032241460A4034
:100E8000012A01D10F3213430C2241460A40042AA1
:100E900001D1043213434A46D372201C0021354B42
:100EA0009847071E5AD1364B9A4608239846354B29
:100EB000994620682169D047071E4FD161690B7898
:100EC000002B13D0CB7A42461A4209D1A0690023E5
:100ED00002E001330B2B3DD0CD5CC25C9542F8D0D3
:100EE000201C0021C847071EE3D037E0A369DB7A46
:100EF0005B07DB0F0520C71A34E0CB7ADB0608D589
:100F00002068214B9847A06042E706272AE0062781
:100F100028E0052726E0062724E05346082B00D1C9
:100F200066E7F8E7081E222800D076E7062719E0D2
:100F30000B1C413B192B00D879E77EE76246A4469B
:100F4000141CF618002387E76246A446141CF61802
:100F5000042381E7C37A5B07CFD503E0A369DB7A7B
:100F6000042FC5D0381C3CBC90469946A246AB46DF
:100F7000F8BDC0461509000088470000784700000A
:100F8000FD010000290C000019010000F8B5051C46
:100F90000021194B9847041E29D1184E184F286874
:100FA0002969B047041E22D16B691B78E52B07D055
:100FB000002B05D0281C0121B847041EEFD016E0F5
:100FC000286829690D4B9847041E13D16B69191CB9
:100FD000203100221A7001338B42FBD16869A96964
:100FE0000B22084B98472B6801221A7102E0042C4F
:100FF00000D10334201CF8BD15090000FD010000DC
:10100000290C000005010000F0B5474680B4041C1F
:1010100088460423154D3F27154E19E02068A84740
:1010200000281AD163691A78002A19D0DB7AE52AD8
:1010300009D02E2A07D03B400F2B04D0083B594241
:10104000594141450FD0201C0021B047031E09D152
:1010500021690029E2D1181E05D00023236102E096
:101060000420FAE7F9E704BC9046F0BDFD0100005A
:10107000290C0000F8B54F464646C0B4041C0D1CB0
:10108000022001292BD96369994228D2164F174BA8
:1010900098460123994618E0201C291CB847061ED3
:1010A00018D0012818D0431C18D0201C291C00225D
:1010B000C047002813D123695A1C05D0013323618E
:1010C00063794A4613436371351C63699D42E3D3D8
:1010D000002004E0002002E0022000E001200CBC1F
:1010E00090469946F8BDC04619080000050A000060
:1010F00010B584B001900091141C039103A8144B07
:1011000098470B23002820DB8300124A9B58002BB2
:1011100001D000221A70019B002B11D000221A70FE
:10112000019A80000B4BC2500023002A0DD0012CE5
:101130000BD101A869460022074B9847031C04E025
:1011400080000022034BC2500023181C04B010BDC5
:10115000390100004400002019030000F0B54F469B
:101160004646C0B48DB001910923002800D1A7E004
:10117000141C051C002303601E22224005A801A99F
:10118000524B9847031E00D09AE01F26264002AB20
:101190000B9305A801994E4B9847031E0A9F6DD1EA
:1011A000002F74D16EE0042B00D07EE005A8494BDF
:1011B0009847031C082216430A9F002806D06DE0BA
:1011C000FB7A11221A4278D1630778D4330768D5A5
:1011D000414B9847B873030AFB73030C3B74000E32
:1011E00078740024FC723C777C77BC77FC77059B95
:1011F0009846181C391C394B98478146BC76FC76BA
:101200003C757C75012342461371002849D0D46A8D
:1012100040464946324B9847031E3FD105984B46FE
:10122000013BC360211C2F4B9847031E48D104E0AB
:10123000A20736D5DB072ED433E020231E43059BBF
:10124000DB6AEB612F62AE710026EE71059C201CFB
:10125000391C224B98472861FB7F1A06BB7F1B0471
:1012600013433A7F13437A7F12021343EB60AE605D
:10127000AE612C60E388AB80002321E01C22224277
:1012800091D10BE01C2323420ED1163B06E01C2318
:10129000234295D10DE0072300E00423002BD2D098
:1012A0000EE03307C9D4CAE70623082216430A9F73
:1012B000F4E7FB7ADA06F0D4BAE7072300E0082364
:1012C000181C0DB00CBC90469946F0BD19030000E7
:1012D000590D00008D0F0000453A00001901000073
:1012E00075100000FD010000F8B55F4656464D46FA
:1012F0004446F0B4041C8946161C98460023424616
:101300001360674B9847031E00D0C2E0E279131EBA
:1013100000D0BEE0A2790723920700D4B9E0A36809
:10132000F218934200D9AAE0002E00D1A7E0A268EB
:10133000D30577D12168530A8F78013F3B40DFB254
:10134000002F1FD1002A07D1206900280BD1081CCB
:101350000021544B984703E0081C6169514B9847A2
:10136000002800D18BE0012802D10223E37190E034
:10137000431C02D10123E3718BE060612369002BE0
:1013800000D120612068C36AA269934206D1464B0E
:101390009847002802D00123E3717AE023689B4636
:1013A000181C6169414B9847002802D10223E37160
:1013B0006FE08246BA44750A23D05B469B78EA19EF
:1013C0009A4200D9DD1B5B465878494652462B1C91
:1013D000374FB847002802D00123E37159E0206855
:1013E000C36A5246991A8D4209D93030490249449C
:1013F000802292002F4B98470023226813716D02C0
:1014000031E0A368E26893420AD35846264B9847D6
:10141000002802D00123E3713BE023685246DA62E0
:101420005346A361A368DB05DB0D80229200D31A2B
:10143000351E9D4200D91D1C2068A1691E4B98478E
:10144000002802D00123E37123E0A368D805C00D72
:10145000303023689C46604449462A1C154B984707
:10146000012322681371A944A3685B19A360434652
:101470001B685B1942461360761B00D057E7A368D0
:10148000E268934200D9E360A27920231343A37159
:101490000023181C3CBC90469946A246AB46F8BDBA
:1014A000DD020000490B000091010000010800006E
:1014B0002D1C000005010000FD01000038B5041CD2
:1014C0001C4B9847002834D1A3799B0631D520685E
:1014D000E169194B984700282BD1256AEA7A202325
:1014E0001343EB72237B2B77A3891B0A6B77E3896A
:1014F000AB77E37BEB772369AB761A0AEA761B0CB2
:101500002B751B0A6B750D4B9847A875030AEB7575
:10151000030C2B76000E68760023AB74EB74A37972
:1015200020229343A3710123226813712068044B86
:10153000984738BDDD020000FD010000453A00007B
:101540000D07000010B5041C054B9847002806D174
:10155000201C044B9847002801D10023236010BDB4
:10156000BD140000DD02000030B595B001900DA85B
:1015700001A90122244B9847002842D103AB1393C1
:101580000DA80199214B984700283AD112990029BA
:1015900027D0CC7A0730E30733D424E00220012D92
:1015A0002FD906A80DA91C22194B9847089506A803
:1015B0000221184B9847002823D106A80021164B7A
:1015C0009847002816D107301BE0002D05D00D9854
:1015D000291C124B9847002813D10D98104B98479F
:1015E0000FE006200DE00D980E4B9847051CE30612
:1015F000D4D401E0042804D10DA80B4B984700284F
:10160000E3D015B030BDC04619030000590D0000ED
:101610000501000015090000091000007510000008
:101620000D07000019010000C5090000C04601387F
:101630000028FBD17047C046F0B55F4656464D4680
:101640004446F0B483B0061C4118324B9B4600233D
:101650009A46314B8025AD008022D2004020814641
:10166000203880461F38DC466C46E07172B6BFF306
:101670005F8F5C4657462770347867B2002F01DAD7
:101680009D6100E05D619A615A614F46274201D039
:101690009D6100E05D619A615A614746274201D031
:1016A0009D6100E05D619A615A61E70601D59D6127
:1016B00000E05D619A615A61270701D59D6100E0F4
:1016C0005D619A615A61670701D59D6100E05D61C6
:1016D0009A615A61A70701D59D6100E05D619A6139
:1016E0005A61204201D09D6100E05D619A615A61BA
:1016F00064466F46FF792770BFF35F8F62B601368D
:101700008E42B3D103B03CBC90469946A246AB464C
:10171000F0BDC0462000002000440041F0B572B684
:10172000BFF35F8F00222E4B1A70802292002D4B48
:101730009A61061C41181A1C8024E40001208025AF
:101740006D00136A946154611B0A03405B00DBB2B5
:10175000176A2F4201D00133DBB2946154615B0000
:10176000DBB2176A2F4201D00133DBB294615461BE
:101770005B00DBB2176A2F4201D00133DBB2946108
:1017800054615B00DBB2176A2F4201D00133DBB238
:10179000946154615B00DBB2176A2F4201D00133C0
:1017A000DBB2946154615B00DBB2176A2F4201D057
:1017B0000133DBB2946154615B00DBB2176A2F42E4
:1017C00001D00133DBB294615461337001368E4233
:1017D000B7D10122024B1A70BFF35F8F62B6F0BD22
:1017E0002000002000440041F0B583B00A4C6B4655
:1017F000DD1D0A4E0A4F281C0121B0472B78FF2B14
:1018000004D06420B847013C002CF4D1201C441EB5
:10181000A04103B0F0BDC046881300001D170000B2
:101820002D16000000B583B080221201044B9A618E
:101830006B46D81D0121034B984703B000BDC0463D
:10184000004400411D17000010B582B08022120133
:10185000084B5A616B46D81D0121074B9847074B2F
:101860009847041E02D1064B984700E00124201C33
:1018700002B010BD004400411D170000E917000030
:1018800025180000F0B585B000900191FA24A4005D
:1018900003AD0E4F0E4E281C0121B8472B78FF2BAD
:1018A00004D16420B047013C002CF4D103AB1B7879
:1018B0000020FE2B07D100980199044CA04703A8F3
:1018C0000221A047012005B0F0BDC0461D17000051
:1018D0002D16000030B583B0051C0C1C104B98472A
:1018E00000281AD001A8047001210E4B984701204E
:1018F000FD2C12D0281C802189000A4B984701AC8E
:10190000201C0221084DA847201C0121A84723784C
:101910001F20184005384342584103B030BDC0462F
:10192000E9170000391600001D17000070B582B0DD
:10193000041C0D1C43B2002B08DA37200021FFF7EE
:10194000F5FF031E012B5CD87F231C400C2C2AD0F2
:101950002D4B98472D4B9847031CFF20002B50D050
:10196000402323436A4613702B0E53702B0C937045
:101970002B0AD3701571002C3BD037E06B46D81D75
:101980000121234B98470A246B46DD1D204E281C5D
:101990000121B047287843B2002B32DA013CE4B28F
:1019A000002CF4D12DE04C236A4613702B0E53709B
:1019B0002B0C93702B0AD370157101235371684659
:1019C0000621144B98470C2CDDD1D7E787236A46B4
:1019D0005371684606210F4B9847D4E701236A46A6
:1019E0005371684606210B4B9847CCE7082CEDD085
:1019F000F4E795236A46537168460621054B9847DC
:101A0000C1E702B070BDC0462518000049180000AB
:101A10001D17000039160000F0B583B001AC002797
:101A2000277001266670A7700820211C0A4DA84760
:101A300026700920211CA84726700A20211CA847CF
:101A400026700B20211CA8472770022363700F20EB
:101A5000211CA84703B0F0BD59260000012300282F
:101A600001D1024B1B78181C7047C04600000020B3
:101A7000F0B585B00323002800D083E04348444BF1
:101A80009847444B98470A24434D03A80121A8478F
:101A9000013CE4B2002CF8D1002000213F4B9847D4
:101AA000012865D10730D52149003C4B98470128D2
:101AB00033D103AC201C0421374B9847A378002472
:101AC000012B55D103ABDB78AA2B51D1FA25AD0000
:101AD0008024E405314F2E4EA920211CB847002850
:101AE00007D0FA208000B047013D002DF4D100243A
:101AF0003EE00024A5423BD03A20211C274B9847CA
:101B0000A04235D103AC201C0421234B98472378F5
:101B10000C245B062CD4083C2AE0A92000211F4B92
:101B20009847012803D901230193012402E0A92346
:101B300001930224FA25AD00184E154F019800219B
:101B4000B047002807D0FA208000B847013D002D9B
:101B5000F4D100240CE0002D09D010208021890050
:101B60000E4B9847434243415B421C4000E0002437
:101B70000B4B1C7063426341DCB20A4B1C700A4B76
:101B80009847231C181C05B0F0BDC0461027000064
:101B90002D160000191A00001D1700002D19000055
:101BA000480000200000002025180000F8B50D1C9A
:101BB0001C1C032300282DD1174B19780323C907B8
:101BC00028D4164B1B781B0700D452020127A742CA
:101BD000BF417F421137381C111C114B9847002818
:101BE00013D1104E281C80218900B047002806D050
:101BF00080239B009C466544013C002CF2D1122FAF
:101C000003D10C200021064B9847074B9847601ED4
:101C10008441E3B2181CF8BD0000002048000020F9
:101C20002D190000851800002518000070B50D1C46
:101C3000161C1C1C032300283ED1204B1A780323BA
:101C4000D20739D41E4B1B781A0700D47602012C18
:101C50000CD11820311C1B4B9847002827D1281C79
:101C6000FE21194B98474442444120E006221A4283
:101C700003D09720211C134B98471920311C114B7E
:101C80009847002813D1104E281CFC21B04700288B
:101C900006D080239B009C466544013C002CF3D178
:101CA0000020FD21084B9847002800D10124074B54
:101CB0009847601E8441E3B2181C70BD00000020EC
:101CC000480000202D190000D5180000251800003C
:101CD00030B585B0032300285ED1314B187803233B
:101CE000C00759D4151C01290AD0002902D00329A4
:101CF0004AD04DE02B4B984743424341DCB248E089
:101D000009200021284B98470124002841D168462A
:101D10001021264B984700283BD06B461B789B0927
:101D2000012B10D16B46DB793F210B401B04591C62
:101D30006B465B7A6A46127A12029B18CB189B029A
:101D40002B60002425E06B46197A8909D879830035
:101D5000C8186B46997903231940890241184C1C15
:101D60006A4652790F210A406946897AC8091118D2
:101D700002316A46527A13405A008B18DBB2093B93
:101D80009C402C60002404E080231360002400E0C9
:101D90000424074B9847231C181C05B030BDC046CF
:101DA00000000020491800002D19000085180000CF
:101DB0002518000010B50020084B9847084CFA2160
:101DC0008900A047074B1860FA218900A047064BFD
:101DD00018600522054B1A6010BDC0464D33000047
:101DE000C1430000080000200400002010E000E0D3
:101DF00030B5084B1C68084A00258021490206E0DE
:101E0000002C04D05460956013680B42FCD001385C
:101E1000F6D230BD0800002010E000E038B58000A8
:101E2000104BC5582B689C792B7E1C406B7E1C4048
:101E3000E30705D5281C6B68984701232A6893712E
:101E4000A30705D5281CAB68984702232A6893711D
:101E5000E30605D5281C6B6998472B6810229A71F8
:101E600038BDC0469000002008B50020014B9847BF
:101E700008BDC0461D1E000010B5002200230270E0
:101E8000427000214280017103760262C261826069
:101E90000373C0246401C481037443748374C374E2
:101EA00003752A24035543758375063C0355C28484
:101EB0000285C1752B23C1540133C15410BDC046E6
:101EC000F0B55F4656464D464446F0B499B00160C1
:101ED000C54C236A80256D022B4323620C780523B1
:101EE000E40700D5FEE109781733890700D5F9E149
:101EF00053780371002B04D1BC490C6C0433234389
:101F00000B64161C8246BA4B1B681B041B0F019303
:101F100003689B46137802AA13701720111CB54B57
:101F200098471720B44B98472C23F35C002B43D0E1
:101F30002B22B55C327B91465219D2B2D318DBB258
:101F400098469A4222D2AD4F331C4E4699460F24F2
:101F50002C404B461B7BE41804A8A9495022B847E3
:101F6000132C0CD8A40004ABE05803A900234B7039
:101F7000CB708B7001330B70C0B2A24B9847013508
:101F8000EDB27319DBB29845E1D84E46F48904A846
:101F90009B495022994B9847132C37D8A40004AB87
:101FA000E05803A900234B70CB708B7001330B708A
:101FB000C0B2944B984729E0347B04A89049502242
:101FC0008E4B9847132C0CD8A40004ABE05803A9FF
:101FD00000234B70CB708B7001330B70C0B2894BF8
:101FE0009847F48904A886495022844B9847132CBB
:101FF0000CD8A40004ABE05803A900234B70CB70AD
:102000008B7001330B70C0B27E4B9847737D9B0081
:10201000DBB25A461370B37DDB0172781343DBB237
:102020005A4653703379342B00D95AE19B00764AD3
:10203000D3589F4604211020022228E0727C317C74
:10204000102024E0019B022B1AD906211020012226
:102050001DE0019B022B17D908211020002216E059
:1020600000213020002212E00021202000220EE07A
:102070000021002000220AE002211020012206E0B7
:1020800006211020032202E0082110200422120160
:10209000702313400B435A469370F27D17233F2A57
:1020A00000D91FE15B46DA7053461A68537E5BB273
:1020B000002BFBDBF27C738813432422B25CD2003A
:1020C0001343327D92001343B27C52001343034307
:1020D0005A469380327E002A20D0102863D002D83E
:1020E00000283FD01AE020281BD0302816D1F37CDE
:1020F000002B0AD0F16980311723FF2900D9F1E0C4
:10210000316A8031FF2900D9ECE01723F169FF29FA
:1021100000DDE7E0316AFF2900DDE3E0534619689E
:102120007AE0F37C002B12D0F36980208000844693
:102130006344191C17233548814200D9D2E0336A21
:102140006344191C17233148814200D9CAE0172380
:102150002E49F069884200DDC4E0306A884200DD23
:10216000C0E0DBE7F37C002B12D0F3698020000194
:1021700084466344191C17232548814200D9B1E0E5
:10218000336A6344191C17232148814200D9A9E00E
:1021900017231F49F069884200DDA3E0306A8842B6
:1021A00000DD9FE0BAE7F37C002B12D0F3698020BA
:1021B000000284466344191C17231648814200D943
:1021C00090E0336A6344191C17231248814200D9F6
:1021D00088E017230F49F069884200DD82E0306A09
:1021E000884200DD7EE099E70004004000080040DE
:1021F0001820004165340000D93300006547000015
:10220000DC4800005D35000008480000FF030000C6
:10221000FF0F0000FFFF00004B7E5BB2002BFBDBDB
:102220005B461A7253461A68537E5BB2002BFBDB87
:10223000B38B5A46938353461A68537E5BB2002B86
:10224000FBDB338C5A4613842C23F25C002A04D027
:10225000013AD2B2153B0F2A44D82B23F15C143B30
:102260000F293FD853461868437E5BB2002BFBDB37
:10227000F089337B0343B068034309051943120413
:102280000A435B461A612A23F35C5A4613750F23EF
:1022900093751533F35C002B11D0F28C172315497D
:1022A0008A421FD85B469A84318D80231B01CA184D
:1022B00092B217230F48824214D85B46D9840E4B42
:1022C00019684901E023DB0019400C4B5A685001A2
:1022D0001A68D30E0343DBB20B435A46138500231F
:1022E00000E01723181C19B03CBC90469946A24642
:1022F000AB46F0BDFF0F000024608000206080002E
:1023000010B50B4B1C690B498A69986802439A60A7
:10231000094B8B61002C05D0206863689847A4683E
:10232000002CF9D1024BD9689A688A439A6010BD93
:102330000C00002000040042FFFF0F0F072804D804
:10234000081801218140081C04E008180830012108
:102350008140081C7047C046064A116A02230B439D
:1023600013620122044B1A70191C0B781342FCD122
:102370007047C0460004004000040042012303707F
:10238000002343708370C3707047C046F0B583B0BC
:10239000061C0D1C294B9847294B1B68DA0747D4AC
:1023A00002E01A4210D100E00024254B19680122F6
:1023B000A2400A431A601A79013A1A71214B9847D0
:1023C0001420FF2C06D137E05B080134E4B2082C5E
:1023D000E7D129E034706B78022B0AD001A9EB78A1
:1023E0000B70271DFFB2381C174B9847381C174B32
:1023F00098476A781206C0239B041A40A878000404
:10240000FC218903031C0B401A43101C2A789206F6
:10241000C0210905131C0B40021C1A4307231C4052
:1024200014437460002007E0064B9847142003E033
:102430005B0801240122B4E703B0F0BD19270000B6
:102440000C0000205927000065340000D93300003B
:1024500010B5054BDC6800780821044B98472040F4
:10246000431E9841C0B210BD000400423D2300004D
:102470000F231940037801331B02F022120113408D
:102480001943034B198142685A6000207047C046C7
:10249000000400421723002A0DD18B00074A9B58E5
:1024A000002B03D189008850002304E0834201D02F
:1024B0001D2300E00023181C7047C0469800002030
:1024C0001723002907D100221F2800D8034A01231F
:1024D0008340D3600023181C7047C046001800409A
:1024E00070B50022154B1A7000231F25144E134C93
:1024F0001F2B19D90FE0002100E012490A619B004F
:102500009B59002B00D0984723780133DBB223700E
:102510000F2BEDD911E0291C194001228A4000211E
:1025200009691142E7D1EFE7291C194001228A40CD
:10253000044909691142E0D1E6E770BD940000202A
:102540009800002000180040044A117802230B4331
:10255000137053785BB2002BFBDB70470018004010
:1025600000B583B0124A916940230B43936101A9DE
:1025700001230B7003200F4B984703200E4B984705
:102580000E4A117801230B43137053785BB2002B72
:10259000FBDB0B4B191C4031002204C38B42FCD1E6
:1025A0001022084B1A60084B984703B000BDC04684
:1025B0000004004065340000D933000000180040DA
:1025C0009800002000E100E049250000002303609E
:1025D000436001220272427283720233C3727047F7
:1025E000F0B583B0051C0C1C01A900234B70CB7007
:1025F00023790B70237A8B702078154B984700262F
:102600001F2D00D8134E07222A409200E07AA37AA9
:10261000002B01D008231843EB089B00F31899699D
:1026200090400F279740B9430A1C02439A61637A8E
:10263000002B06D073690122AA40151C1D43756149
:1026400004E073690122AA409343736103B0F0BDB3
:102650005D3500000018004000B583B001AB80225A
:102660001A700A785A704A789A708A78DA70191C47
:10267000014B984703B000BD5D350000F0B54F46F3
:102680004646C0B483B001AC01276770002398466A
:10269000A37027700620211C1D4DA8470520211C72
:1026A000A8471C4E40237361203B73611B20211CF3
:1026B000A84780231B0573611820211CA84780238D
:1026C0005B04994673611620211CA8478023DB0315
:1026D00073611320211CA84780231B0373611820FA
:1026E000211CA8474B46B361434623706770A37013
:1026F0000720211CA8471720211CA847677012201B
:10270000211CA84703B00CBC90469946F0BDC046BA
:1027100059260000004400410C4B1B68002B10D1CF
:10272000EFF31083002B09D172B6BFF35F8F002245
:10273000074B1A700132074B1A7002E00022054B5A
:102740001A70024A13680133136070474C0000206E
:102750002000002050000020084B1A68013A1A603F
:102760001B68002B09D1064B1B78002B05D00122DA
:10277000044B1A70BFF35F8F62B670474C000020A5
:10278000500000202000002010B54908402481425C
:102790000CD30023091A01339BB28842FAD9013BBA
:1027A0009BB24024FF2B01D813800024201C10BDB5
:1027B000F0B55F4656464D464446F0B489B01C1C01
:1027C00012AB1B78061C5E4340258E4200D9C7E041
:1027D000251C07920C1C021C002D51D1181C002135
:1027E0000023634DA8478346261C002700230024AE
:1027F00002930394002200233F2020218C461F399E
:102800000096019720246442041903D40D1CA540AE
:10281000A84604E06446241A0D1CE540A8460C1C9A
:102820008440A146141C1D1CA4185D41221C2B1CB5
:102830005E4647463E4203D00E1C2643321C2B1CEC
:10284000019C9C4210D802D1009C94420CD8009C60
:10285000019D121BAB414D46029E039F35433C1C1C
:1028600046463443029503940138CBD2002201231B
:1028700002980399121A8B41110C1B0419436CE046
:102880000021012D69D1610F0F1CE1008846181C41
:1028900000210023364CA047041C0D1C00239C463D
:1028A00020339B46012663460593B9466B461B7D44
:1028B000069300239C46002000213F2200940195AE
:1028C00020235B42D31803D4341C9C40231C04E017
:1028D0005B469B1A341CDC40231C371C9740041CAD
:1028E0000D1C24184D41201C291C029003914446C4
:1028F0003C40A2464C4623405446234305D0029B0D
:10290000039C1D1C3543281C211C019B8B420AD8AB
:1029100002D1009B834206D8009B019CC01AA141B2
:1029200063463B439C46013ACAD2009C019D6246E5
:102930000599531ADB080F4A934208D9069A0132C7
:10294000D2B206920A1C01320592082AAED1402565
:10295000069A082A04D051031943079B19800025C1
:10296000281C09B03CBC90469946A246AB46F0BD37
:10297000C5460000FF1F000010B582B0041C0E4BBE
:102980001B78002B01D000290DD001A90C700C2060
:102990000A4B98470C200A4B9847074B5C70012262
:1029A0001A70002006E0044B5B78834201D01D20A2
:1029B00000E0002002B010BD54000020653400008B
:1029C000D93300002E4B98421CD003D82D4B98428F
:1029D00007D04AE02C4B984225D02C4B984233D05C
:1029E00043E0012906D0002941D0022906D003295D
:1029F00006D001E0264841E000203FE025483DE0C8
:102A000025483BE0012906D0002932D0022906D012
:102A1000032906D001E0214830E000202EE02048C4
:102A20002CE020482AE0012906D0002923D00229E1
:102A300006D0032906D001E01B481FE000201DE05E
:102A40001A481BE01A4819E0012906D0002914D0C1
:102A5000022906D0032906D001E016480EE0002026
:102A60000CE015480AE0154808E0002006E014488C
:102A700004E0032002E0134800E013487047C0461A
:102A8000000C004200080042001000420014004206
:102A90000300050003000600030007000300010017
:102AA00003001E0003001F000300090003000A00CA
:102AB00003000B00030011000300120003001300C9
:102AC00003000400030008000300100030B585B0C7
:102AD0006A460E4B32CB32C21B681360031C009A4D
:102AE00082420FD0019A824208D0029A824207D0D5
:102AF0000020039A9A4207D1033004E0012002E04B
:102B0000022000E00020C0B205B030BD2C4900001A
:102B10007047C04630B50B4B1B78002B0ED10A4CCA
:102B20000A4D25600A4B00221A6065605A60A56054
:102B30009A60E560DA600132024B1A708000024B45
:102B4000C15030BD5600002058000020112B00005D
:102B5000D800002030B583B0051C01AC201C05490D
:102B60000422054B9847281C044B9847205603B075
:102B700030BDC0463C49000065470000CD2A00003A
:102B800008B5024B1B680020984708BD580000207C
:102B900008B5024B5B680120984708BD580000202B
:102BA00008B5024B9B680220984708BD58000020DA
:102BB00008B5024BDB680320984708BD5800002089
:102BC000F0B55F4656464D464446F0B48DB0051C00
:102BD0000C1C161C2960081C824B98472268052390
:102BE000D20700D5F5E022681733920700D5F0E050
:102BF0007D490A6A871C1B3BBB4013430B620BA930
:102C0000737F0B700D30C7B2381C784B9847381C57
:102C1000774B9847707F0021764B9847F37A6B711A
:102C2000337DAB71737DEB712B689946181C6D4B2E
:102C300098470D3000220E2302A98C4663441A8067
:102C400033689A46F3689B46B37D02937268039299
:102C5000002A14D080235B059A4230D1F37D002BEB
:102C600031D133699846C0B2634B9847011C404646
:102C70000E2202AB9C466244604B984720E0F37DF5
:102C8000002B0BD0102300933069B1690E2202ABE8
:102C90009C46624400235A4FB84711E03369984676
:102CA000C0B2554B9847011C1023009340460E229A
:102CB00002AB9C4662440023514FB84700E000201D
:102CC000031E00D085E02A68138ADB0BDB039BB26E
:102CD000002BF9D10E3302AA944663441B884A465E
:102CE00053815B4652461343039A1343029A570794
:102CF0001F43F37D002B01D104331F43737D1A045E
:102D0000337D5B041343F17A19433289FF2A03D0E0
:102D100080235B041F431143337F002B03D1394BC6
:102D20009B789B0701D580231F432A68138ADB0BFE
:102D3000DB039BB2002BF9D14B4659602A68138AFA
:102D4000DB0BDB039BB2002BF9D14B461F600AABB8
:102D500080221A7000225A70DA709A70336A0693D1
:102D6000736A0793B36A0893F36A0293099300277F
:102D70000AAEF9B2BB0006AA9858002802D1201C5E
:102D8000214B9847431C05D03070000CC0B2311C59
:102D90001E4B98470137042FEBD10023AB60EB604B
:102DA0002B61AB616B610022EB83AB832033EA5470
:102DB0000133EA540133EA540133EA542868094BD9
:102DC0009847041C1249134B9847A400124BE55036
:102DD0000023181C0DB03CBC90469946A246AB4659
:102DE000F0BDC046CD2A000000040040653400005C
:102DF000D9330000792900008134000089270000C0
:102E0000B127000000200041C52900005D35000009
:102E1000912E0000152B0000D8000020F8B5061CEC
:102E20000C1C151C07680A4B9847F38B9BB2002BB0
:102E300003D0084B9847052009E0F583054B9847D8
:102E4000B46105222323F254223B7B730020F8BD9A
:102E50001927000059270000931C9B0019500123DB
:102E600093401A1C2021435C1A4342547047C046C9
:102E700010B51723002A06D0C4790533002C02D0E0
:102E8000024B9847031C181C10BDC0461D2E0000A5
:102E9000F8B58000494BC5582C68238ADB0BDB034F
:102EA0009BB2002BF9D1A37B667B1E402123EB5CF8
:102EB0002022AF5C1F40F30722D5EB8B9BB2002B87
:102EC0001CD0AA691378DBB2511CA9616979012968
:102ED00001D09BB204E0517809020B430232AA618F
:102EE000DB05DB0D2383EB8B013B9BB2EB83002BDC
:102EF00006D1013323730133637301E0012323738C
:102F0000B30709D50223237300222133EA54FB07B8
:102F100002D5281CAB68984773074ED5AB8B9BB284
:102F2000002B48D0238ADBB25A0722D09A0707D554
:102F30001A222223EA54228A203B1343238212E0DE
:102F40005A0707D51E222223EA54228A1E3B134326
:102F5000238208E0DB0706D513222223EA54228AC3
:102F6000213B134323827B0727D52B69281C9847D5
:102F700023E0238BDB05DB0DDAB269690A706A692D
:102F8000511C69616979012904D11B0A53706B696D
:102F900001336B61AB8B013B9BB2AB83002B0CD13C
:102FA0000433237300221E33EA54BB0705D5EB68B4
:102FB000281C984701E004232373F8BDD8000020A3
:102FC00008B5072803D88000174B1B589F460020E0
:102FD00028E0164BD86825E0154B186A8005800F4D
:102FE000144BC340181C1DE0104B18691AE00F4B1E
:102FF0001B680220184015D00D491022CB681A42D8
:10300000FCD00A4B1B685B070BD500200A4B984786
:10301000064B9B681B041B0C584303E080200002F6
:1030200000E0064808BDC046404900006800002096
:103030000008004000127A0081340000006CDC02BD
:1030400070B50C4C236A01788578427801200240E3
:1030500092014026B3431343021C2A40D2017F3021
:103060008343134303220A40120203490B401343D4
:10307000236270BD00080040FFFCFFFFF0B557461B
:103080004E464546E0B41C4EB3699C4641780578EF
:103090000779C378994644798378012003409B00DF
:1030A0009A4604229046624643469A43131C52466F
:1030B0001A43131C0140C900082293430B434A469C
:1030C0000240920140218B4313430740FF018022BD
:1030D00093433B43793A15402D02084F3B402B4325
:1030E00004402003064C1C400443B4611CBC9046C1
:1030F0009946A246F0BDC04600080040FFF8FFFF19
:10310000FFEFFFFF072803D880001E4B1B589F4688
:10311000172036E01C4A116A02230B431362002079
:103120002FE0194A916902230B439361002028E0A4
:10313000154A118A02230B431382002021E0124A10
:10314000918A02230B43938200201AE00F4B1968E7
:1031500002220A431A601A680D4B13400A4A9384EC
:10316000111C1022CB681A42FCD0084A9168064B09
:10317000D96251689962126892B29A84002000E084
:1031800000207047604900000008004068000020EF
:103190007FFF000030B585B0C222D2001A4B9A6082
:1031A0001A4A53681E218B43536001236A461370E9
:1031B0000024174DE0B26946A84701341C2CF9D110
:1031C00003A800244470012585700470114B9847B2
:1031D0000620114B9847114B9847114B1C725C729B
:1031E0009C72DC7201956B465C7006236A46137014
:1031F00014725472002069460A4B984700200A4B0B
:10320000984705B030BDC04600080040004000416E
:103210006534000041300000053100002D3200000F
:10322000000400405132000009330000064A916951
:1032300008230B4393610122044B1A70191C0B786D
:103240001342FCD17047C04600040040000C00400F
:1032500070B5061C041C0D782D0205434B78002B1D
:1032600002D08023DB021D434B7A002B02D0802347
:103270001B031D434868012818D9431E184210D16A
:10328000022806D90223002201325B009842FBD8B3
:1032900000E0002212023243141C80235B031D4312
:1032A00004E00402344380239B021D430B7A002B6D
:1032B00002D080239B031D430F4A53785BB2002B3F
:1032C000FBDB0E4B98470E4B1E700B4A53785BB2DC
:1032D000002BFBDB084B9C601A1C53785BB2002B65
:1032E000FBDB054A516880235B020B401D435560A0
:1032F000044B984770BDC046000C004019270000E1
:10330000080C00405927000010B5041C0B4A5378E4
:103310005BB2002BFBDB0A4B98470A4B1C70074A39
:1033200053785BB2002BFBDB044A536880214902CF
:103330000B435360044B984710BDC046000C00403F
:1033400019270000040C00405927000070B5041C28
:103350001A4A53785BB2002BFBDB194B9847194B89
:103360001C70164A53785BB2002BFBDB134E70685F
:10337000C004C00E144B9847051C124B1C70766895
:10338000F602F60F114B1C700C4A53785BB2002BFF
:10339000FBDB0A4B9C68240AA4B20D4B9847002E15
:1033A00007D1012C07D9281C211C0A4B9847051C62
:1033B00001E00134E540281C70BDC046000C00400F
:1033C00019270000040C0040C12F0000080C004029
:1033D00059270000C143000010B5041C064B984754
:1033E000064B1C70064A51888023DB010B43538037
:1033F000044B984710BDC04619270000020C00403E
:10340000000C00405927000010B5041C0F4B9847D2
:103410000F4B1C700F4B5A881205100F59880E4A1B
:103420000A405A8059880D4A0A405A80191C802245
:10343000D2014B881342FCD1064902024888064B50
:10344000034013434B80064B984710BD19270000DB
:10345000020C0040000C0040FFF0FFFFFFBFFFFF29
:103460005927000010B50C7824020443024B9847FA
:10347000A4B2024B5C8010BD09340000000C004077
:1034800010B5041C064B9847064B1C70064B5C8815
:103490002405240F054B9847201C054B984710BD69
:1034A00019270000020C0040000C004059270000C2
:1034B0004D33000030B5D378002B1ED11478802C0A
:1034C00004D0240680235B021C4300E000245378D0
:1034D0000225AB430AD19378002B03D180239B02B2
:1034E0001C4302E0C023DB021C4341605378013BD4
:1034F000012B12D8184B1C400FE041600B041B0C31
:10350000A024E405234383620B0CD0242406234328
:103510008362D378002B18D01CE00B041B0CA02571
:10352000ED052B43234383620B0CD0252D062B4343
:1035300023438362D378002B0CD1630305D59378A2
:10354000012B01D1816100E041615378013B012BE6
:1035500000D8816030BDC046FFFFFBFF08B5031CEB
:103560000A1CC1090020002904D15809C0010549DD
:103570008C4660441F210B401E399940024B9847EE
:1035800008BDC04600440041B53400007047C04645
:1035900008B5054B9847054B9847054B9847054B91
:1035A0009847054B984708BD953100007D260000DF
:1035B00059230000612500008D35000038B58000DA
:1035C000144BC5582B689C7B2B7E1C406B7E1C408B
:1035D000E30705D5281CAB68984701232A68937335
:1035E000A30705D5281CEB68984702232A68937324
:1035F000E30605D5281C2B69984710232A68937386
:10360000A30605D5281C6B6998472B6820229A735E
:1036100038BDC046E800002008B50020014B98479F
:1036200008BDC046BD35000008B50120014B9847D4
:1036300008BDC046BD35000008B50220014B9847C3
:1036400008BDC046BD35000008B50320014B9847B2
:1036500008BDC046BD35000008B50420014B9847A1
:1036600008BDC046BD35000008B50520014B984790
:1036700008BDC046BD35000030B587B00C4B6A466A
:1036800032CB32C232CB32C2009B834206D00123FE
:103690009A0069465258824203D100E00023D8B212
:1036A00003E00133062BF3D1002007B030BDC04644
:1036B00080490000F0B54F464646C0B489B0041CAE
:1036C0000E1C9046081C914B98478146904D291C32
:1036D000183106A806228F4FB847291C203103A8AD
:1036E0000C22B8470023A360E36023616361237663
:1036F00063764B469A00884BD450266043469B78AD
:10370000082B04D117204A46D20700D5F9E02371CF
:1037100033880520DB0700D5F3E0F37B1730DB06A9
:1037200000D5EEE033889B0700D5EAE043461B7CDA
:10373000002B0CD002A901238B700022CA704246D4
:10374000127E0A704B704346187D744B984743466F
:103750001B7F002B0DD002A901238B700022CA70A1
:103760004246526A0A704B7043461B6AD8B26B4B92
:1037700098476B490B6A4A46520003A8125A1343F2
:103780000B6243469B78082B06D10B6A4A460132EE
:103790005200125A13430B6201A943461B780B7067
:1037A00006AB4A469D5C281C5E4B9847281C5E4B26
:1037B0009847434698881B890343424690799278FC
:1037C0001043184343465B78002B02D080231B0133
:1037D000184321687F22CB7B9343FCD13080434642
:1037E000587B431E9841800043469B7B002B01D0B1
:1037F0000123184321687F22CB7B9343FCD1FF3305
:103800003371002805D021687F22CB7B9343FCD104
:1038100070714346987ADB7A002B01D0102318434D
:1038200043461B7B002B01D02023184321687F22B5
:10383000CB7B9343FCD1B07122687F21D37B8B4338
:10384000FCD12379042B05D0082B41D01720002B65
:1038500057D124E07F21D37B8B43FCD128334246D0
:10386000D35C337421687F22CB7B9343FCD1293313
:103870004246D35C337521687F22CB7B9343FCD1D6
:103880002A334246D35C337621687F22CB7B934335
:10389000FCD12B334246D35C7376002031E07F218C
:1038A000D37B8B43FCD143461B8D338221687F221F
:1038B000CB7B9343FCD143465B8D338321687F22CE
:1038C000CB7B9343FCD143469B8D7383002018E050
:1038D0007F21D37B8B43FCD143469B6A33612168B4
:1038E0007F22CB7B9343FCD14346DB6AB3612168E3
:1038F0007F22CB7B9343FCD143461B6BF3610020BB
:10390000FFE709B00CBC90469946F0BD793600003F
:103910008049000065470000E80000205D35000098
:103920000004004065340000D9330000EFF3058344
:10393000FCE7C04610B51D4B1D4A9A4203D01D4BF3
:103940001A4A9A4204D31C4B1C4A9A4210D31EE0D6
:103950001B4A184B03339B1A9B0801339B00002220
:10396000124813498C58845004329A42FAD1EAE73B
:10397000144A114B03339B1A9B0801339B0000220E
:103980000E4800211418216004329A42FAD10E4ADE
:10399000FF210E4B8B4393600D4A516880230B43EC
:1039A00053600C4B98470C4B9847FEE700000020F3
:1039B000E0490000240000208C08002024000020A2
:1039C000040000202800002000ED00E000000000BE
:1039D00000400041194700001D420000054B1B6AD2
:1039E0001B0603D40122044B1A7002E00022024B92
:1039F0001A707047004400418800002008B50C4B45
:103A00001B889BB2012B0AD9094B19880239094B33
:103A10001B68591808480222084B984707E0084BD2
:103A20001968FF31FF3104480222044B984708BD52
:103A3000860000200001002004010020712E0000FB
:103A400060030020004870470000FC4210B50948A0
:103A500009490022094B9847094C201C094B9847FB
:103A60000948211C0A22094B984743425841C0B2D9
:103A700010BDC04628010020B0490000F110000030
:103A8000B449000069150000600600205D110000C7
:103A900030B583B0031C0C1C0648191C221C01AB5A
:103AA000054DA847019BE01A44426041C0B203B0F3
:103AB00030BDC04660060020E912000070B582B03B
:103AC00001A812490222124B984701A80221114B6A
:103AD0009847114B1B88002B13D0104E0E4C0D4DE8
:103AE0005A1E93009B59190C68460170190E4170BB
:103AF00083701B0AC37022800421A8472388002BEF
:103B0000EED10748074B984702B070BDAC490000A2
:103B100065470000913A00007C00002084030020EB
:103B2000600600204515000010B584B001AC201CD3
:103B3000084B9847072301930023636001332372E6
:103B40000222E27263720720211C034B984704B0E3
:103B500010BDC046CD250000E125000008B5054890
:103B600007210022044B984707200021034B984768
:103B700008BDC046DD39000095240000C1240000C6
:103B800070B58CB08023DB05009300230193FF22E6
:103B900069460A818B72CB729622920104920122AD
:103BA0000A754A758B75CB7506930B774B77802317
:103BB0005B030393144B0893144B099301235B425B
:103BC0000A930B93124E134D134C301C291C6A465A
:103BD000A0470028F9D10E4D2C68201C0F4B9847A8
:103BE0001F2318401E3B8340181C0D4B18602A6889
:103BF000138ADB0BDB039BB2002BF9D12268023363
:103C0000134323600CB070BD0200100002001100CD
:103C100004010020000C0042C12B0000552B0000C5
:103C200000E100E010B5064C201C06490022064BBE
:103C300098472122A15C01230B43A35410BDC04629
:103C400004010020FD390000592E000010B58CB091
:103C50006846144B9847F0231B05029300236A46DD
:103C6000538002335370013B1373002269460A717B
:103C70002A228B540C4C201C0C496A460C4B98474A
:103C80002268537E5BB2002BFBDB117802230B43CF
:103C90001370054B1A68537E5BB2002BFBDB0CB034
:103CA00010BDC046791E000084080020004000427C
:103CB000C11E00000122034B1A7080229203024BA6
:103CC0001A6070471740004200E100E000B587B07D
:103CD00004A8012282700023C370027106320270B0
:103CE000437143700E4B984704200E4B98470F23A7
:103CF0006B4418701B78002B02D020220A4B9A616B
:103D000000236A4653705372043313700C330193CB
:103D10000F3B137201206946044B984707B000BD62
:103D20007D300000053100000044004151320000A8
:103D300010B590B003AA00230021938091711381E4
:103D400051709172D17211739173517311745361E7
:103D50009361117713625362138553859385013301
:103D600013700333937003212533D154194C201C55
:103D700019491A4B9847226801AB19794B1E994192
:103D8000090101ABDB78002B01D0202319438023EC
:103D90005B000B4301A80078002802D088235B0158
:103DA0000B4301A94978002902D0802189010B43E6
:103DB000508901A9497901430B439BB253817F216B
:103DC000D37B8B43FCD1118802330B43138010B09B
:103DD00010BDC0466403002000200042B53600003C
:103DE000084B1B88312B09D8074A10689900074AED
:103DF00088500133034A1380012000E0FF2040B2C5
:103E00007047C0467C000020800000208403002012
:103E100008B5184B1B780020002B28D00022154B2A
:103E20001A70154B1A88AF235B009A4203D94022BF
:103E3000124B9A6102E02022104B9A61104B1868D5
:103E4000802189000F4B984700280FD00A4B1A8811
:103E5000AF235B009A4204D94022084B5A610120EB
:103E600005E02022054B5A61012000E0FF2040B20E
:103E700008BDC046890000208C000020004400419D
:103E800060030020913A000010B51E4B1B78002BF8
:103E900037D000221B4B1A701B4B1B6A1B060BD51D
:103EA00011E0013B002BFCD10132D2B2036A19426E
:103EB00007D1FF2A03D10EE0144C13488021231CA4
:103EC000EFE7C72A07D8124B1A68124B9A4218D14B
:103ED000114B984715E00E4B1B68104A934203D1D3
:103EE0000F4A0B4B1A600CE00A4A934202D00D4A6B
:103EF000934203D1094A064B1A6002E0074A044B79
:103F00001A6010BD88000020004400411027000006
:103F100080030020BD3F0000E13D0000293F00007C
:103F20003D4100003540000008B51F4B98471F4B2E
:103F3000802212055A61802252045A6180221203A3
:103F40005A611B4B1A687F21D37B8B43FCD1803392
:103F500053717F21D37B8B43FCD1138802218B4388
:103F60001380144B1A68537E5BB2002BFBDB137873
:103F700002218B4313700F4B1A68537E5BB2002BE8
:103F8000FBDB0A4B1B6A1B0202D52022074B5A613E
:103F9000064B40225A61203A5A61BFF34F8F30BF1F
:103FA000054B984708BDC046BD3A0000004400419B
:103FB0006403002084080020893E000010B5144BE3
:103FC0009847144B9847144B1B78002B0BD00022BA
:103FD000114B1A70114C2088114B5843A021090233
:103FE000104B984720800D4B1A88A7235B009A42FC
:103FF00002D80D4A0D4B1A600D4B1B6A1B0203D4ED
:1040000020220B4B9A6102E02022094B5A6110BD1D
:10401000113E0000893E00008A0000208C00002034
:10402000C8190000E1440000354000008003002072
:104030000044004170B540220F4B5A610F4B984726
:104040000F4B1A687F21D37B8B43FCD18033537194
:104050000C4B1A680C4B9A420DD10C4E0C4D094C6E
:10406000FA204000B0472022034BDA61A847064BF4
:1040700022689A42F4D070BD00440041BD3A00006D
:10408000640300208003002035400000F11D000083
:10409000893E000072B6BFF35F8F00221F4B1A707B
:1040A0008022D2031E4B9A611E4B1A68537E5BB26C
:1040B000002BFBDB13691F218B431361537E5BB223
:1040C000002BFBDB184A117802230B4313701749AE
:1040D00001220B781342FCD0154B1A88154B1A801D
:1040E0000122154B1A700F4B1A68537E5BB2002BDE
:1040F000FBDB13691F218B431E390B431361537E76
:104100005BB2002BFBDB8022D203054B5A610122FC
:10411000024B1A70BFF35F8F62B670472000002019
:1041200000440041840800200C4000421840004236
:104130001A4000428C0000208A00002008B5284A5E
:10414000284B1A60284B40229A61802212059A61FE
:10415000802252049A61802212039A61234B1A68CA
:104160007F21D37B8B43FCD1118802330B43138017
:104170001F4B1A68537E5BB2002BFBDB11780223C6
:104180000B4313701A4B1A68537E5BB2002BFBDB98
:10419000184B9847002802D1174A124B1A60002387
:1041A000164A1380164A1360164A1380164A174B94
:1041B0001A60174B98470D4B1A687F21D37B8B43AE
:1041C000FCD113717F21D37B8B43FCD140335371DE
:1041D0000E4B19680F4802220F4B984708BDC04686
:1041E000BD3F000080030020004400416403002024
:1041F000840800204D3A0000354000008600002071
:10420000800000207C0000208406002000010020A7
:104210009540000004010020712E000070B582B0AE
:10422000264A274B1A60274B9847274B9847274B1E
:104230009847274B9847274B9847274B9847274B3A
:10424000984701AC201C264B98471C23A3700023E1
:10425000237002256570E370224E301C211C224B16
:104260009847301C0821214B9847214B9847214BF8
:104270009847214B9847214A5368C02189000B4336
:1042800053601F4A136904218B4313611D4B5D70FA
:1042900001221D4B1A70BFF35F8F62B61B4A1C4B85
:1042A0001A601C4A1C4B1A600E4D1C4C281CA0475F
:1042B0000028FBD1024C23689847FCE73D410000F1
:1042C0008003002091350000B51D0000CD3C0000AA
:1042D000313D00004D3C0000813B0000253C0000CA
:1042E0007D2300004C0400208D2300007124000079
:1042F000B53C0000293B00005D3B00000040004150
:1043000000ED00E0000400402000002084060020B2
:104310000001002060040020600300205124000000
:1043200010B58022D2021D4BDA611D4B1B889BB257
:104330001C4A93422ED81C4B1A88194B19881B48CB
:1043400004686254198800684118120A4A701A8871
:10435000023292B21A801B889BB2124A93421CD935
:10436000134A1388591C118080229200934204D969
:10437000104B984700220E4B1A8001220E4B1A70E8
:104380000022074B1A80094A11680C4B186810600C
:10439000196002E02022014B9A6110BD00440041E7
:1043A00086000020FF0100001A40004200010020AA
:1043B0008400002095400000890000206003002058
:1043C000002243088B4274D303098B425FD3030A54
:1043D0008B4244D3030B8B4228D3030C8B420DD367
:1043E000FF22090212BA030C8B4202D312120902F5
:1043F00065D0030B8B4219D300E0090AC30B8B4233
:1044000001D3CB03C01A5241830B8B4201D38B03E0
:10441000C01A5241430B8B4201D34B03C01A524185
:10442000030B8B4201D30B03C01A5241C30A8B42C8
:1044300001D3CB02C01A5241830A8B4201D38B02B3
:10444000C01A5241430A8B4201D34B02C01A524157
:10445000030A8B4201D30B02C01A5241CDD2C309C9
:104460008B4201D3CB01C01A524183098B4201D345
:104470008B01C01A524143098B4201D34B01C01A30
:10448000524103098B4201D30B01C01A5241C308A8
:104490008B4201D3CB00C01A524183088B4201D317
:1044A0008B00C01A524143088B4201D34B00C01A03
:1044B0005241411A00D20146524110467047FFE76F
:1044C00001B5002000F0FCF802BDC0460029F7D07D
:1044D00003B5FFF775FF0EBC4243891A1847C04663
:1044E00003460B437FD4002243088B4274D3030955
:1044F0008B425FD3030A8B4244D3030B8B4228D3F6
:10450000030C8B420DD3FF22090212BA030C8B421B
:1045100002D31212090265D0030B8B4219D300E0BB
:10452000090AC30B8B4201D3CB03C01A5241830B40
:104530008B4201D38B03C01A5241430B8B4201D3F0
:104540004B03C01A5241030B8B4201D30B03C01A19
:104550005241C30A8B4201D3CB02C01A5241830A93
:104560008B4201D38B02C01A5241430A8B4201D3C2
:104570004B02C01A5241030A8B4201D30B02C01AEC
:104580005241CDD2C3098B4201D3CB01C01A524153
:1045900083098B4201D38B01C01A524143098B42DC
:1045A00001D34B01C01A524103098B4201D30B01C5
:1045B000C01A5241C3088B4201D3CB00C01A5241EA
:1045C00083088B4201D38B00C01A524143088B42AF
:1045D00001D34B00C01A5241411A00D20146524148
:1045E000104670475DE0CA0F00D04942031000D367
:1045F0004042534000229C4603098B422DD3030ABC
:104600008B4212D3FC22890112BA030A8B420CD3CB
:10461000890192118B4208D3890192118B4204D3F4
:1046200089013AD0921100E08909C3098B4201D374
:10463000CB01C01A524183098B4201D38B01C01AAE
:10464000524143098B4201D34B01C01A5241030925
:104650008B4201D30B01C01A5241C3088B4201D3D4
:10466000CB00C01A524183088B4201D38B00C01A81
:104670005241D9D243088B4201D34B00C01A524158
:10468000411A00D20146634652415B10104601D3E5
:104690004042002B00D54942704763465B1000D36F
:1046A000404201B5002000F00BF802BD0029F8D00F
:1046B00003B5FFF715FF0EBC4243891A1847C046E1
:1046C0007047C046F0B54F46464605042D0C2C1CDD
:1046D000C0B41704160C3F0C9946030C7C43754379
:1046E0005F4373437D19260CAD199C46AF4203D935
:1046F00080235B029846C4444B4651434343240401
:104700002E0C240C2D0466442C1959188919201CD0
:104710000CBC90469946F0BD0E4B70B500251E1C92
:104720000D4CE41AA410A54204D0AB00F3589847EE
:104730000135F8E700F044F9084B00251E1C084C31
:10474000E41AA410A54204D0AB00F35898470135F1
:10475000F8E770BDCC490000CC490000CC4900000E
:10476000D0490000002310B5934203D0CC5CC45460
:104770000133F9E710BD0000222A2B2C3A3B3C3DC7
:104780003E3F5B5D7C7F0000809A90418E418F8030
:104790004545454949498E8F9092924F994F5555BD
:1047A00059999A9B9C9D9E9F41494F55A5A5A6A7A7
:1047B000A8A9AAABAC21AEAFB0B1B2B3B4B5B6B78D
:1047C000B8B9BABBBCBDBEBFC0C1C2C3C4C5C6C7F1
:1047D000C8C9CACBCCCDCECFD0D1D2D3D4D5D6D7E1
:1047E000D8D9DADBDCDDDEDFE0E1E2E3E4E5E6E7D1
:1047F000E8E9EAEBECEDEEEFF0F1F2F3F4F5F6F7C1
:10480000F8F9FAFBFCFDFEFF70200000E222000038
:10481000E2220000E2220000E2220000E222000088
:10482000E2220000E2220000E2220000E222000078
:10483000E2220000E2220000E2220000E222000068
:10484000E2220000E222000052200000E2220000EA
:10485000E2220000E2220000E2220000E222000048
:10486000E2220000E2220000E2220000E222000038
:10487000E2220000E2220000E2220000E222000028
:10488000E2220000E222000068200000E222000094
:10489000E2220000E2220000E2220000E222000008
:1048A000E2220000E2220000E2220000E2220000F8
:1048B000E2220000E2220000E2220000E2220000E8
:1048C000E2220000E22200006020000078200000C8
:1048D00034200000442000003C20000002000000C2
:1048E00003000000FFFF0000FFFF000004000000C5
:1048F000050000000600000007000000FFFF0000A8
:10490000FFFF0000FFFF0000FFFF0000FFFF0000AF
:10491000FFFF0000FFFF0000FFFF00000800000095
:10492000090000000A0000000B000000000800421F
:10493000000C004200100042001400420708090A5F
:10494000D22F0000CE2F0000CE2F00001C30000020
:104950001C300000E82F0000D82F0000EE2F0000D0
:1049600030310000103100001031000080310000B3
:10497000223100003E310000143100004C310000B3
:10498000002000420024004200280042002C004287
:1049900000300042003400421313141415150000B7
:1049A000000100020004000800100020FFFF0000CA
:1049B00000000000656367646174612E62696E00C7
:1049C000F8B5C046F8BC08BC9E467047CD00000054
:1049D000F8B5C046F8BC08BC9E467047A50000006C
:1049E0000100000008000000401F0000000000005F
:1049F00008000000000000000000000000000000AF
:044A000001000000B1
:04000003000039358B
:00000001FF
